:100000000C9463000C948B000C948B000C941905D9
:100010000C9419050C9419050C948B000C948B000E
:100020000C948B000C948B000C948B000C948B0024
:100030000C948B000C948B000C948B000C948B0014
:100040000C9477040C948B000C94E7040C94C1047A
:100050000C948B000C948B000C948B000C948B00F4
:100060000C948B000C948B000000000024002700EF
:100070002A0000000008000201000003040700003D
:1000800000000000000000000000230026002900FE
:1000900000000000250028002B00040404040404D0
:1000A0000404020202020202030303030303010227
:1000B00004081020408001020408102001020408F6
:1000C000102091057D0811241FBECFEFD8E0DEBFC0
:1000D000CDBF11E0A0E0B1E0E4E1F6E102C005909F
:1000E0000D92A638B107D9F722E0A6E8B1E001C029
:1000F0001D92A739B207E1F710E0C2E6D0E004C0D4
:100100002197FE010E94BB08C136D107C9F70E94A2
:100110003C060C94FD0A0C94000090E0FC01EE58A3
:10012000FF4F2491FC01E255FF4F3491FC01E6564C
:10013000FF4FE491EE23C9F0222339F0233001F17F
:10014000A8F4213019F1223029F1F0E0EE0FFF1F61
:10015000E057FF4FA591B4918FB7F894EC916111DE
:1001600026C030953E233C938FBF08952730A9F0D9
:100170002830C9F0243049F7809180008F7D03C07A
:10018000809180008F7780938000DFCF84B58F7758
:1001900084BDDBCF84B58F7DFBCF8091B0008F779E
:1001A0008093B000D2CF8091B0008F7DF9CF3E2BED
:1001B000DACFCF93DF9390E0FC01E255FF4F24911B
:1001C00086569F4FFC0184918823D1F090E0880FE0
:1001D000991FFC01E859FF4FA591B491FC01E0572C
:1001E000FF4FC591D49161110EC09FB7F8948C91C7
:1001F000E22FE0958E238C932881E223E8839FBF32
:10020000DF91CF9108958FB7F894EC91E22BEC93A6
:100210008FBFF6CF3FB7F8948091D7019091D80166
:10022000A091D901B091DA0126B5A89B05C02F3F56
:1002300019F00196A11DB11D3FBFBA2FA92F982F0C
:100240008827BC01CD01620F711D811D911D42E007
:10025000660F771F881F991F4A95D1F70895DC0113
:10026000ED91FC910190F081E02D0994AF92BF9245
:10027000CF92DF92EF92FF920F931F93CF93DF9372
:100280006C017B018B01040F151FEB015E01AE18A1
:10029000BF08C017D10759F06991D601ED91FC91C3
:1002A0000190F081E02DC6010995892B79F7C501F0
:1002B000DF91CF911F910F91FF90EF90DF90CF9042
:1002C000BF90AF900895FC01538D448D252F30E0F1
:1002D000842F90E0821B930B541710F0CF96089553
:1002E00001970895FC01918D828D981761F0A28D80
:1002F000AE0FBF2FB11D5D968C91928D9F5F9F7346
:10030000928F90E008958FEF9FEF0895FC01918DFB
:10031000828D981731F0828DE80FF11D858D90E068
:1003200008958FEF9FEF0895FC01918D228D892F05
:1003300090E0805C9F4F821B91098F7399270895ED
:100340008BED91E00E94940121E0892B09F420E0DB
:10035000822F089580E090E0892B29F00E94A0016F
:1003600081110C9400000895FC01A48DA80FB92FF1
:10037000B11DA35ABF4F2C91848D90E001968F73CD
:100380009927848FA689B7892C93A089B1898C91EC
:10039000837080648C93938D848D981306C002883B
:1003A000F389E02D80818F7D80830895EF92FF9205
:1003B0000F931F93CF93DF93EC0181E0888F9B8D88
:1003C0008C8D98131AC0E889F989808185FF15C042
:1003D0009FB7F894EE89FF896083E889F989808165
:1003E0008370806480839FBF81E090E0DF91CF9134
:1003F0001F910F91FF90EF900895F62E0B8D10E056
:100400000F5F1F4F0F731127E02E8C8D8E110CC0C4
:100410000FB607FCFACFE889F989808185FFF5CF0F
:10042000CE010E94B401F1CFEB8DEC0FFD2FF11D39
:10043000E35AFF4FF0829FB7F8940B8FEA89FB894C
:1004400080818062CFCFCF93DF93EC01888D8823AA
:10045000B9F0AA89BB89E889F9898C9185FD03C027
:10046000808186FD0DC00FB607FCF7CF8C9185FF0C
:10047000F2CF808185FFEDCFCE010E94B401E9CF9C
:10048000DF91CF9108952091C8013091C9012817BB
:10049000390771F49091C6018091C701981741F016
:1004A000E091C601F0E0EA57FE4F808190E00895A8
:1004B0008FEF9FEF08950895EF92FF920F931F9390
:1004C000CF93DF93DC015C96ED90FC905D97E11497
:1004D000F10479F481E090E013969C938E93129747
:1004E00090E080E0DF91CF911F910F91FF90EF900E
:1004F00008955196ED91FC91529750968C9150979A
:10050000982F90950FB75E962C915E97122F1270D0
:1005100021FD6095F8942081112319F1282B208367
:10052000E7012197F1F728E0462F50E0308160FF86
:100530001AC0382B3083E7012197F1F7BA0175957E
:100540006795215089F7112381F080818923808369
:100550000FBF5C968D919C910197F1F781E090E03F
:10056000C1CF2923DCCF3923E5CF9081892BEFCF71
:100570002091C8013091C9012817390761F4809191
:10058000C7012091C60190E0805C9F4F821B9109BA
:100590008F739927089590E080E008952091C80115
:1005A0003091C90128173907B9F49091C60180919B
:1005B000C701981789F0E091C601F0E0EA57FE4FB5
:1005C00080812091C60130E02F5F3F4F2F7333278A
:1005D0002093C60190E008958FEF9FEF089590E07B
:1005E00080E00895FB0101900020E9F73197AF0109
:1005F000461B570BDC01ED91FC910280F381E02D4D
:1006000009948F929F92AF92BF92EF92FF920F93B5
:100610001F93CF93DF93CDB7DEB7A1970FB6F894B2
:10062000DEBF0FBECDBF7C01FA01CB0119A2223083
:1006300008F42AE08E010F5D1F4F822E912CB12C01
:10064000A12CBF01A50194010E949908F901CA01DA
:100650006A300CF5605DD8016E938D01232B242B3D
:10066000252B79F790E080E0109721F0BD01C701BC
:100670000E94F202A1960FB6F894DEBF0FBECDBF66
:10068000DF91CF911F910F91FF90EF90BF90AF90AE
:100690009F908F900895695CDECFCF92DF92EF92AA
:1006A000FF920F931F93CF93DF9377FF1DC06A01D3
:1006B0007B01EC016DE20E942F018C01442755273C
:1006C000BA014C195D096E097F092AE0CE010E942A
:1006D0000103800F911FDF91CF911F910F91FF9028
:1006E000EF90DF90CF9008952AE0DF91CF911F9196
:1006F0000F91FF90EF90DF90CF900C9401034F92F9
:100700005F926F927F92AF92BF92CF92DF92EF9201
:10071000FF921F93CF93DF935C016A017B01722EDE
:1007200020E030E0A901CB01B6010E942E09D0E003
:10073000C0E087FF09C06DE2C5010E942F01EC01F6
:10074000F7FAF094F7F8F09410E060E070E080E0E1
:100750009FE3171541F020E030E040E251E40E94B1
:1007600033091F5FF6CFA70196010E94C2086B01F3
:100770007C010E94A5092B013C012AE0BC01A201D9
:10078000C5010E940103C80FD91F1123C1F1C30184
:10079000B2010E94D4099B01AC01C701B6010E94BD
:1007A000C1086B017C016EE2C5010E942F01C80FD8
:1007B000D91F115020F120E030E040E251E4C701A0
:1007C000B6010E948B0A2B013C010E94A5096B0116
:1007D000F12CE12C2AE0B701A601C5010E9401031A
:1007E000C80FD91FC701B6010E94D4099B01AC01F3
:1007F000C301B2010E94C1086B017C01DACFCE01B6
:10080000DF91CF911F91FF90EF90DF90CF90BF903D
:10081000AF907F906F905F904F9008958F929F92CE
:10082000AF92BF92CF92DF92EF92FF921F93CF933E
:10083000DF93EC016A017B01122FAB019601CB0122
:10084000B6010E94F80A64E271E081111AC0460103
:100850005701E894B7F82FEF3FEF4FE75FE7C50187
:10086000B4010E94F80A81111AC02FEF3FEF4FE741
:100870005FE7C501B4010E942E09181684F468E2EE
:1008800071E0CE01DF91CF911F91FF90EF90DF904B
:10089000CF90BF90AF909F908F900C94F2022FEF6B
:1008A0003FEF4FE75FE4C701B6010E94860A1816C2
:1008B0001CF46CE271E0E5CF2FEF3FEF4FE75FEC08
:1008C000C701B6010E942E0987FDF3CF212FB70182
:1008D000A601CE01DF91CF911F91FF90EF90DF90A5
:1008E000CF90BF90AF909F908F900C947F031F92FA
:1008F0000F920FB60F9211242F933F938F939F93D4
:10090000AF93BF938091D3019091D401A091D50171
:10091000B091D6013091D20123E0230F2D3758F545
:100920000196A11DB11D2093D2018093D301909314
:10093000D401A093D501B093D6018091D7019091B5
:10094000D801A091D901B091DA010196A11DB11D84
:100950008093D7019093D801A093D901B093DA0185
:10096000BF91AF919F918F913F912F910F900FBEAB
:100970000F901F90189526E8230F0296A11DB11D18
:10098000D2CF1F920F920FB60F9211242F933F9345
:100990004F935F936F937F938F939F93AF93BF9387
:1009A000EF93FF938BED91E00E94B401FF91EF91E3
:1009B000BF91AF919F918F917F916F915F914F9177
:1009C0003F912F910F900FBE0F901F9018951F927F
:1009D0000F920FB60F9211242F938F939F93EF9343
:1009E000FF93E091EB01F091EC018081E091F10146
:1009F000F091F20182FD1BC090818091F4018F5F24
:100A00008F732091F501821741F0E091F401F0E03D
:100A1000E552FE4F958F8093F401FF91EF919F91E6
:100A20008F912F910F900FBE0F901F90189580817E
:100A3000F4CF1F920F920FB60F9211242F933F9372
:100A40004F935F936F937F938F939F93AF93BF93D6
:100A5000EF93FF93E091C801F091C901309749F0FD
:100A6000A685B7858585968D91FF14C09C918923B5
:100A7000A1F4FF91EF91BF91AF919F918F917F91E1
:100A80006F915F914F913F912F910F900FBE0F90FB
:100A90001F9018959C91892361F7A389B4899C9133
:100AA0008589809589238C93868997890197F1F7A9
:100AB000608D718DA685B785558538E020E0CB0126
:100AC0000197F1F7822F90E095958795282F4C910B
:100AD000452309F02068315091F7868D81FD2095DE
:100AE0008091C70190E001968F7399273091C601DC
:100AF000381799F0A091C701B0E0AA57BE4F2C93C8
:100B00008093C701828D938D0197F1F7A389B489F2
:100B10008C919589892B8C93ACCF868D8160868F43
:100B2000F1CF1092DE011092DD0188EE93E0A0E09B
:100B3000B0E08093DF019093E001A093E101B093D6
:100B4000E20124E031E03093DC012093DB0125EC6D
:100B500030E03093E8012093E70124EC30E030935B
:100B6000EA012093E90120EC30E03093EC0120937E
:100B7000EB0121EC30E03093EE012093ED0122EC0B
:100B800030E03093F0012093EF0126EC30E0309319
:100B9000F2012093F1011092F4011092F5011092EC
:100BA000F6011092F70110927B0210927A02809364
:100BB0007C0290937D02A0937E02B0937F0286E137
:100BC00091E0909379028093780210928F021092B4
:100BD0008E02109291021092900210929302109243
:100BE00092021092950210929402609196026E7F8A
:100BF0006D7F609396026695617081E0682782E060
:100C00000E948D0061E082E00E94D900E0EBF0E0FC
:100C1000E491E0938802ECE9F0E0E491F0E0EE0F7B
:100C2000FF1FE057FF4F8591949190938A02809324
:100C3000890260E084E00E94D9008091960281FDE3
:100C400004C061E084E00E948D0084E0809384020F
:100C5000E2EBF0E0E491E0938502EEE9F0E0E4916C
:100C6000F0E0EE0FFF1FEA57FF4F859194919093AC
:100C70008702809386020895789484B5826084BD4B
:100C800084B5816084BD85B5826085BD85B5816090
:100C900085BD80916E00816080936E00109281000E
:100CA00080918100826080938100809181008160C9
:100CB000809381008091800081608093800080918A
:100CC000B10084608093B1008091B0008160809316
:100CD000B00080917A00846080937A0080917A00DD
:100CE000826080937A0080917A00816080937A009C
:100CF00080917A00806880937A001092C10061E050
:100D00008DE00E94D90060E08DE00E948D00E091AE
:100D1000EB01F091EC0182E08083E091E701F0913A
:100D2000E8011082E091E901F091EA0180E180831D
:100D30001092F301E091EF01F091F00186E08083E1
:100D4000E091ED01F091EE01808180618083E0917E
:100D5000ED01F091EE01808188608083E091ED01EA
:100D6000F091EE01808180688083E091ED01F09147
:100D7000EE0180818F7D8083109293021092920207
:100D8000109291021092900210928F0210928E0295
:100D90008DE991E090939502809394029091840262
:100DA000963108F047C02DEB30E030938F0220934E
:100DB0008E022BE931E030939102209390022CE2D5
:100DC00031E030939302209392022091680084E0F6
:100DD000983048F031E09E3008F430E081E001C006
:100DE000880F3A95EAF7822B809368002DE630E071
:100DF000983050F02BE630E09E3030F02CE630E0BA
:100E0000963110F030E020E030938C0220938B027A
:100E1000292F30E0983008F063C181E001C0880FCD
:100E20009A95EAF780938D028091940290919502B1
:100E30000197F1F78091920290919302892B49F1E9
:100E4000E091C801F091C90122E0E837F20709F109
:100E5000309739F0A389B4899C918589809589233D
:100E60008C93809196028E7F809396021092C70198
:100E70001092C60188E792E09093C9018093C8015F
:100E8000E0918B02F0918C02808190918D02892BF0
:100E900080830E940A014B015C019CEDC92E95E004
:100EA000D92EE12CF12C0E940A01681979098A09CE
:100EB0009B09683E734081059105A8F331E0C31A90
:100EC000D108E108F10848EE840E43E0941EA11C0D
:100ED000B11CC114D104E104F10429F760E371E00D
:100EE0008BED91E00E94F20260E471E08BED91E005
:100EF0000E94F20263E471E08BED91E00E94F20245
:100F000042E050E060E070E08BED91E00E944D0324
:100F100060E471E08BED91E00E94F2022FB7F8944B
:100F20008091D3019091D401A091D501B091D601C7
:100F30002FBF88519C4FAF4FBF4F8093CE019093EE
:100F4000CF01A093D001B093D1018AE0882E912CDB
:100F5000A12CB12CC0E0D0E08FB7F894C090D301A1
:100F6000D090D401E090D501F090D6018FBF809150
:100F7000CE019091CF01A091D001B091D101A701F4
:100F80009601281B390B4A0B5B0BDA01C901B7FD2F
:100F90009CC06091CA017091CB018091CC0190916D
:100FA000CD01A50194010E9499080E94D4092DEC5D
:100FB0003CEC4CEC5DE30E948B0A23E333E34BEB08
:100FC00051E40E94C2082B013C016FE771E088E701
:100FD00092E00E94F20247E050E060E070E088E7B3
:100FE00092E00E944D0361E771E088E792E00E9481
:100FF000F20221E0B301A20188E792E00E940E0410
:1010000065E771E088E792E00E94F20222E042E5A3
:1010100058EB6EE770E488E792E00E940E046AE005
:1010200088E792E00E942F0169E771E08BED91E083
:101030000E94F20247E050E060E070E08BED91E04A
:101040000E944D0361E771E08BED91E00E94F20296
:1010500021E0B301A2018BED91E00E940E0465E74F
:1010600071E08BED91E00E94F20222E042E558EB44
:101070006EE770E48BED91E00E947F0360E471E025
:101080008BED91E00E94F2028091CA019091CB0118
:10109000A091CC01B091CD010196A11DB11D80930D
:1010A000CA019093CB01A093CC01B093CD0138E855
:1010B000C30E33E1D31EE11CF11CC092CE01D092CD
:1010C000CF01E092D001F092D101209709F444CFF2
:1010D0000E94A001882309F43FCF0E9400003CCF6A
:1010E0009E3040F42850310981E001C0880F2A95D4
:1010F000EAF798CE2E503109F7CF86E191E0909330
:101100007902809378028091C8019091C901885733
:10111000924071F4E0918B02F0918C029081809169
:101120008D028095892380831092C9011092C80195
:101130000895A1E21A2EAA1BBB1BFD010DC0AA1F18
:10114000BB1FEE1FFF1FA217B307E407F50720F030
:10115000A21BB30BE40BF50B661F771F881F991FAB
:101160001A9469F760957095809590959B01AC01F4
:10117000BD01CF010895EE0FFF1F0590F491E02D02
:1011800009945058BB27AA270E94D9080C944C0AEE
:101190000E943E0A38F00E94450A20F039F49F3F31
:1011A00019F426F40C943B0A0EF4E095E7FB0C943A
:1011B000350AE92F0E945D0A58F3BA1762077307D0
:1011C0008407950720F079F4A6F50C947F0A0EF4B5
:1011D000E0950B2EBA2FA02D0B01B90190010C0147
:1011E000CA01A0011124FF27591B99F0593F50F45F
:1011F000503E68F11A16F040A22F232F342F4427B7
:10120000585FF3CF469537952795A795F0405395AE
:10121000C9F77EF41F16BA0B620B730B840BBAF07E
:101220009150A1F0FF0FBB1F661F771F881FC2F7E9
:101230000EC0BA0F621F731F841F48F487957795FD
:101240006795B795F7959E3F08F0B0CF9395880FB7
:1012500008F09927EE0F9795879508950E94110A37
:1012600008F481E008950E9447090C944C0A0E94FA
:10127000450A58F00E943E0A40F029F45F3F29F0E9
:101280000C94350A51110C94800A0C943B0A0E946C
:101290005D0A68F39923B1F3552391F3951B550B20
:1012A000BB27AA2762177307840738F09F5F5F4F39
:1012B000220F331F441FAA1FA9F335D00E2E3AF078
:1012C000E0E832D091505040E695001CCAF72BD090
:1012D000FE2F29D0660F771F881FBB1F26173707E1
:1012E0004807AB07B0E809F0BB0B802DBF01FF2713
:1012F00093585F4F3AF09E3F510578F00C94350AB1
:101300000C94800A5F3FE4F3983ED4F3869577957A
:101310006795B795F7959F5FC9F7880F911D9695CB
:10132000879597F90895E1E0660F771F881FBB1F27
:10133000621773078407BA0720F0621B730B840BD4
:10134000BA0BEE1F88F7E09508950E94650A88F0B1
:101350009F5798F0B92F9927B751B0F0E1F0660F79
:10136000771F881F991F1AF0BA95C9F714C0B130BA
:1013700091F00E947F0AB1E008950C947F0A672FD4
:10138000782F8827B85F39F0B93FCCF386957795E9
:101390006795B395D9F73EF49095809570956195D2
:1013A0007F4F8F4F9F4F0895E89409C097FB3EF4FD
:1013B00090958095709561957F4F8F4F9F4F9923A2
:1013C000A9F0F92F96E9BB279395F6958795779520
:1013D0006795B795F111F8CFFAF4BB0F11F460FFE0
:1013E0001BC06F5F7F4F8F4F9F4F16C0882311F038
:1013F00096E911C0772321F09EE8872F762F05C04C
:10140000662371F096E8862F70E060E02AF09A95E6
:10141000660F771F881FDAF7880F9695879597F9DB
:101420000895990F0008550FAA0BE0E8FEEF161675
:101430001706E807F907C0F012161306E407F507C8
:1014400098F0621B730B840B950B39F40A2661F03C
:10145000232B242B252B21F408950A2609F4A140DF
:10146000A6958FEF811D811D089597F99F6780E8EC
:1014700070E060E008959FEF80EC089500240A94E6
:101480001616170618060906089500240A9412165F
:101490001306140605060895092E0394000C11F492
:1014A000882352F0BB0F40F4BF2B11F460FF04C03F
:1014B0006F5F7F4F8F4F9F4F089557FD9058440F98
:1014C000551F59F05F3F71F04795880F97FB991FA3
:1014D00061F09F3F79F08795089512161306140660
:1014E000551FF2CF4695F1DF08C0161617061806ED
:1014F000991FF1CF86957105610508940895E894C8
:10150000BB2766277727CB0197F908950E94110A18
:1015100008F48FEF08950E949E0A0C944C0A0E94D2
:101520003E0A38F00E94450A20F0952311F00C94F1
:10153000350A0C943B0A11240C94800A0E945D0A1F
:1015400070F3959FC1F3950F50E0551F629FF00116
:10155000729FBB27F00DB11D639FAA27F00DB11D2F
:10156000AA1F649F6627B00DA11D661F829F2227B8
:10157000B00DA11D621F739FB00DA11D621F839F3F
:10158000A00D611D221F749F3327A00D611D231F15
:10159000849F600D211D822F762F6A2F11249F5763
:1015A00050409AF0F1F088234AF0EE0FFF1FBB1F66
:1015B000661F771F881F91505040A9F79E3F510525
:1015C00080F00C94350A0C94800A5F3FE4F3983E57
:1015D000D4F3869577956795B795F795E7959F5FCF
:1015E000C1F7FE2B880F911D9695879597F9089561
:1015F0000E94110A880B990B089510E0C2E6D0E012
:1016000004C0FE010E94BB082196C336D107C9F76A
:04161000F894FFCF7C
:1016140000000000D6013601630123029401720127
:101624008601000000005C023601EF025B02B80292
:10163400CE0243026E616E00696E66006F766600CC
:101644005541525420746573742072656164790045
:101654000D0A005553422053657269616C3A206447
:1016640065627567206F75747075743B20536F667F
:10167400747761726553657269616C2054583D4496
:10168400002C543D002C423D0053656E743A204DAD
:06169400432C4E3D000056
:00000001FF
